:100000000C9434000C9451000C9451000C94510049
:100010000C9451000C9451000C9451000C9451001C
:100020000C9451000C9451000C9451000C9451000C
:100030000C9451000C9497010C9451000C945100B5
:100040000C945F060C9451000C941F070C944D0700
:100050000C9451000C9451000C9451000C945100DC
:100060000C9451000C94510011241FBECFEFD8E026
:10007000DEBFCDBF11E0A0E0B1E0E6EAF3E102C0EF
:1000800005900D92AE33B107D9F721E0AEE3B1E0B0
:1000900001C01D92AE3FB207E1F70E9453000C94DD
:1000A000D1090C9400000E94D80687E690E00E94D7
:1000B0007707E1E8F0E080818A7F80838081826039
:1000C0008083EFE6F0E080818160808378948CEE1D
:1000D0000E94E706809300014AE06BE871E090E03F
:1000E0000E946B0981E091E00E94A5078BE891E0F6
:1000F0000E94A50786E191E00E94A507809100017A
:1001000081118FC088E80E9405078DEE0E94E706E6
:10011000C0EBD1E009EC11E00E94100789930C17A5
:100120001D07D1F70E941B07E0EBF1E0818190E011
:10013000982F88272081822B9093AF018093AE0166
:10014000838190E0982F88272281822B9093CC0185
:100150008093CB01858190E0982F88272481822B82
:100160009093F1018093F001878190E0982F882788
:100170002681822B9093DE018093DD01818590E0C2
:10018000982F88272085822B9093D3018093D201CA
:10019000838590E0982F88272285822B9093E00119
:1001A0008093DF01858590E0982F88272485822B16
:1001B0009093D5018093D401878590E0982F88276C
:1001C0002685822B9093D8018093D701818990E076
:1001D000982F88272089822B9093F3018093F20136
:1001E000838990E0982F88272289822B9093AD01F4
:1001F0008093AC01858990E0982F88272489822BF1
:100200009093E2018093E101878990E0982F8827FD
:100210002689822B9093EF018093EE01808D80934D
:10022000CD018CEE0E94E706809300014AE06BE866
:1002300071E090E00E946B0989E191E00E94A507BE
:100240008BE891E00E94A50786E191E00E94A50756
:1002500080910001811112C081EE0E9405078DEE90
:100260000E94E706C0EBD1E008EB11E00E94100706
:1002700089930C171D07D1F70E941B07E0EBF1E0F3
:10028000818190E0982F88272081822B9093F5011F
:100290008093F40182818093ED012481858130E196
:1002A000839FC00111249093CA018093C9012295B4
:1002B0002F70822B9093E8018093E70186818093D1
:1002C000D6018CEE0E94E706809300018FE291E058
:1002D0000E94A507809100014AE06BE871E090E080
:1002E0000E946B0981E391E00E94A5078BE891E0F1
:1002F0000E94A50786E191E00E94A5078091000178
:10030000811114C085EF0E94050780EB0E9405074C
:1003100082EF0E94050785E00E94050784EF0E9496
:10032000050787EB0E9405070E941B07FFCF1F925E
:100330000F920FB60F9211248F929F92AF92BF929D
:10034000CF92DF92EF92FF920F931F932F933F93E1
:100350004F935F936F937F938F939F93AF93BF93CD
:10036000EF93FF93CF93DF93CDB7DEB72897DEBF30
:10037000CDBF80914001909141018739910534F4BE
:1003800001969093410180934001E1C01092410198
:10039000109240018FE291E00E94A5078CEE0E942E
:1003A000E706809300014AE06BE871E090E00E946C
:1003B0006B0987E291E00E94A5078BE891E00E941B
:1003C000A50786E191E00E94A507809100018111B7
:1003D000BEC087EF0E9405078DEE0E94E7068E01E2
:1003E0000F5F1F4F7E0189E0E80EF11C0E9410078D
:1003F000F80181938F01EE15FF05C1F70E941B07DD
:10040000CC80D12CE12CF12CB701A601032E3CE0CD
:10041000440F551F661F771F3A95D1F7302D8D81F8
:10042000C82ED12CE12CF12CCC0CDD1CEE1CFF1CB9
:10043000CC0CDD1CEE1CFF1CCC0CDD1CEE1CFF1CD0
:10044000CC0CDD1CEE1CFF1CC42AD52AE62AF72A98
:100450008E8182958F70C82A8F80912CA12CB12C0F
:10046000BA2CA92C982C88248885882A6981862F03
:1004700090E0A0E0B0E0AC01BD01032E3CE0440FF1
:10048000551F661F771F3A95D1F7302D8A8190E06E
:10049000A0E0B0E0880F991FAA1FBB1F880F991F0B
:1004A000AA1FBB1F880F991FAA1FBB1F880F991F68
:1004B000AA1FBB1F842B952BA62BB72B2B81229514
:1004C0002F70BC01CD01622B6093E9017093EA01AA
:1004D0008093EB019093EC01C092CE01D092CF01BA
:1004E000E092D001F092D101809287019092880130
:1004F000A0928901B0928A0120E14BE851E00E946C
:1005000076098BE891E00E94A50786E191E00E94C0
:10051000A50720E14BE851E0C701B6010E9476092A
:100520008BE891E00E94A50786E191E00E94A50773
:1005300020E14BE851E0C501B4010E9476098BE847
:1005400091E00E94A50786E191E00E94A507289608
:100550000FB6F894DEBF0FBECDBFDF91CF91FF91F4
:10056000EF91BF91AF919F918F917F916F915F912B
:100570004F913F912F911F910F91FF90EF90DF903E
:10058000CF90BF90AF909F908F900F900FBE0F9025
:100590001F9018958F929F92AF92BF92CF92DF9249
:1005A000EF92FF920F931F930091AE011091AF0154
:1005B00020E030E06B017C01689413F8F594E79437
:1005C000D794C7941694D1F7C01AD10AE20AF30A55
:1005D000DC01CB01689412F8B595A795979587959E
:1005E0001694D1F7000F111F221F331F4C015D011C
:1005F000801A910AA20AB30AA5019401A091CB0125
:10060000B091CC010E94CF074B015C01072E7BE02B
:10061000B594A794979487947A95D1F7702DA701F4
:100620009601C701B6010E94B4079B01AC01012EDF
:100630001CE055954795379527951A95D1F7102DBC
:10064000A091F001B091F1010E94CF07DC01CB0134
:10065000072E7EE0B595A795979587957A95D1F762
:10066000702D880D991DAA1DBB1D8093F6019093D6
:10067000F701A093F801B093F9018C019D01000FDF
:10068000111F221F331F000F111F221F331F800F46
:10069000911FA21FB31F80589F4FAF4FBF4F692FAD
:1006A0007A2F8B2F992787FD9A951F910F91FF9095
:1006B000EF90DF90CF90BF90AF909F908F90089574
:1006C0002F923F924F925F926F927F928F929F9262
:1006D000AF92BF92CF92DF92EF92FF920F931F9350
:1006E000CF93DF93CDB7DEB769970FB6F894DEBF2F
:1006F0000FBECDBF6C8B7D8B8E8B9F8B8091F60157
:100700009091F701A091F801B091F9016C017D0180
:10071000FF0CCC08DC2C7601282F392F4A2F5B2FB9
:100720006C2D7C2D8C2D9C2D345F4140510961092D
:1007300071098109910929833D834E835F8368870D
:1007400079878A879B87A22EB32EC42ED52EE62EBC
:10075000F72E082F192F0E94D7072C873D874E8729
:100760005F87688B798B8A8B9B8B3091D30120912B
:10077000D201932F990F990B492F592F692F792F58
:10078000892F0E94D7070CE00E940709622E732E62
:10079000842E952E698F788F582E492E3091E00146
:1007A0002091DF01932F990F990BAC84BD84CE84E7
:1007B000DF84E888F9880A891B89492F592F692F16
:1007C000792F892F0E94D70708E00E942009A62CC4
:1007D000B72CC82CD92CE98CF88C052D142D0E942F
:1007E0003E0970588F4F9F4F2090DD013090DE0101
:1007F000A22CB32CC12CD12CE12CF12C00E010E068
:100800000E94D70701E20E942009322E232E942E47
:10081000598F688F472E582E692EA0E00E945009EC
:1008200009F435C13091F3012091F201932F990F12
:10083000990BAC84BD84CE84DF84E888F9880A896A
:100840001B89492F592F692F792F892F0E94D7078C
:100850002C873D874E87752E862E7F87888B998BB8
:100860003091D8012091D701932F990F990BA9802E
:10087000BD80CE80DF80E884F9840A851B85492FFE
:10088000592F692F792F892F0E94D70701E10E94E4
:100890000709AC84BD84CE84D72CE82CFF8408895A
:1008A00019890E943E09A22EB32EC42ED52EE62E03
:1008B000F72E782E192F80E090E0A0E1B0E02C898F
:1008C0003D894E895F89821B930BA40BB50B9C015C
:1008D000AD01550F220B322FA90129833A834B8397
:1008E0005C83282F392F4A2F5B2F6981762F862F23
:1008F000962F0FE10E940709822E39834D835E8374
:10090000B62FA72FF82FE92F3091D5012091D401D0
:10091000932F990F990B492F592F692F792F892FD1
:1009200003E20E940709072D0E943E09A22EB32E62
:10093000C42ED52EE62EF72E082F192F282D3981FB
:100940004D815E816B2F7A2F8F2F9E2F0E9447093A
:100950000F2EF5E3AF2EF02D0F2EFCE0BF2EF02D65
:10096000C12CD12CE12CF12C00E010E00E94D70723
:10097000A32CB22CC92CD98CE88CF42C052D162D67
:100980000E9432082B873A8749835D836E837F8379
:10099000888799870DE00E942009922E832E742E5D
:1009A000652E562E472E382E292E3091EF0120919C
:1009B000EE01932F990F990BA92CB82CC72CD62C8C
:1009C000E52CF42C032D122D492F592F692F792F47
:1009D000892F0E94D7070E94D70709E10E942009AA
:1009E000AB84BA84C980DD80EE80FF8008851985DC
:1009F0000E943E09222E332E442E552E662E772E2F
:100A0000882E992E3091E2012091E101932F990FC8
:100A1000990B492F592F692F792F892F0E94D707BA
:100A200003E10E942009A22EB32EC42ED52EE62E5D
:100A3000F72E082F192F222D332D442D552D662DDD
:100A4000772D882D992D0E943E0908E00E942009EB
:100A5000A22EB32EC42ED52EE62EF72EE82F192F58
:100A60003091AD012091AC01932F990F990B492F33
:100A7000592F692F792F892F04E00E9407090E2F23
:100A80000E943E09622F732F842F952F04C060E0CF
:100A900070E080E090E069960FB6F894DEBF0FBE7C
:100AA000CDBFDF91CF911F910F91FF90EF90DF901D
:100AB000CF90BF90AF909F908F907F906F905F90FE
:100AC0004F903F902F9008954F925F926F927F9238
:100AD0008F929F92AF92BF92CF92DF92EF92FF924E
:100AE0008090F6019090F701A090F801B090F90184
:100AF0002CE2921A21E0A20AB1086B017C010B2EB4
:100B0000BEE0CC0CDD1CEE1CFF1CBA95D1F7B02D5D
:100B10008091C9019091CA01092E000CAA0BBB0B50
:100B2000072E74E1880F991FAA1FBB1F7A95D1F772
:100B3000702DC81AD90AEA0AFB0AA091E701B09100
:100B4000E801A50194010E94CF07C61AD70AE80A56
:100B5000F90A30E4D30EE11CF11C0B2EBFE0F59432
:100B6000E794D794C794BA95D1F7B02DA091ED0131
:100B7000B0E0A50194010E94C4072B013C01032EA3
:100B80003BE075946794579447943A95D1F7302D8C
:100B900040E8540E611C711CA091D601B0E0A50183
:100BA00094010E94C407052E5AE095958795779584
:100BB00067955A95D1F7502DA30192010E94B40771
:100BC000DC01CB01072E7AE0B595A795979587951F
:100BD0007A95D1F7702D9C01AD01405E5F4FA091D9
:100BE000F401B091F5010E94CF07DC01CB01905ECA
:100BF000AF4FBF4FBC01CD01052E5EE095958795A7
:100C0000779567955A95D1F7502DA70196010E94C7
:100C1000B4076B017C01052E5FE09595879577956C
:100C200067955A95D1F7502D9B01AC010E94B407EE
:100C30009B01AC01689416F8559547953795279513
:100C40001694D1F7A091CD01B0E00E94C407DC0159
:100C5000CB01689413F8B595A79597958795169449
:100C6000D1F7A7019601281B390B4A0B5B0BDA0160
:100C7000C9011AF480E090E0DC0181309105A10502
:100C800039E1B30724F080E090E0A0E0B9E1BC01D5
:100C9000CD01052E5CE095958795779567955A95DA
:100CA000D1F7502DFF90EF90DF90CF90BF90AF9095
:100CB0009F908F907F906F905F904F9008951F92BC
:100CC0000F920FB60F9211242F933F934F935F9380
:100CD0006F937F938F939F93AF93BF93EF93FF9304
:100CE00080913E0190913F01813D27E0920734F4CD
:100CF000019690933F0180933E0149C010923F01BD
:100D000010923E016091CE017091CF018091D0018F
:100D10009091D1010E94CA026093D9017093DA01C7
:100D20008093DB019093DC012AE04BE851E00E94C4
:100D300076096091E9017091EA018091EB0190914F
:100D4000EC010E9460036093FA017093FB018093B1
:100D5000FC019093FD012AE04BE851E00E947609E6
:100D600060918701709188018091890190918A0139
:100D70000E9464056093E3017093E4018093E501B0
:100D80009093E6012AE04BE851E00E947609FF913A
:100D9000EF91BF91AF919F918F917F916F915F91F3
:100DA0004F913F912F910F900FBE0F901F9018956C
:100DB00087B18F7C87B988B1806388B9E9EBF0E0AF
:100DC00080818C7F808388E98093B800089594EABD
:100DD0009093BC00ECEBF0E090819923ECF78093CA
:100DE000BB0084E88093BC00ECEBF0E080818823BA
:100DF000ECF79091B900987F983129F081E0903418
:100E000019F480E0089580E008958093BB0084E8A1
:100E10008093BC00ECEBF0E080818823ECF7089530
:100E200084EC8093BC00ECEBF0E080818823ECF74D
:100E30008091BB00089584E98093BC0008951F92BF
:100E40000F920FB60F9211242F938F939F93EF93CE
:100E5000FF938091C0002091C6008C71E091440105
:100E6000EF5FEF7190914301E91739F0E09344018E
:100E7000F0E0E95BFE4F208301C082E090914201E7
:100E8000892B80934201FF91EF919F918F912F9138
:100E90000F900FBE0F901F9018951F920F920FB6D4
:100EA0000F9211248F939F93EF93FF93909146019C
:100EB00080914501981769F0E0914501EF5FEF716E
:100EC000E0934501F0E0E959FE4F80818093C60030
:100ED00005C0E1ECF0E080818F7D8083FF91EF9190
:100EE0009F918F910F900FBE0F901F9018951092A9
:100EF000460110924501109244011092430199233A
:100F00001CF422E02093C00090789093C500809359
:100F1000C40088E98093C10086E08093C2000895F0
:100F2000209146012F5F2F71909145012917E1F320
:100F3000E22FF0E0E959FE4F808320934601E1EC77
:100F4000F0E08081806280830895CF93DF93EC018D
:100F50008881882331F021960E9490078991811120
:100F6000FBCFDF91CF910895DB018F939F930E9478
:100F7000C407BF91AF91A29F800D911DA39F900DBB
:100F8000B29F900D112408950E945C09A59F900DB9
:100F9000B49F900DA49F800D911D11240895B7FF5B
:100FA0000C94C4070E94C407821B930B0895DF931F
:100FB000CF931F930F939A9DF02D219FF00D8B9D42
:100FC000F00D8A9DE02DF10D039FF00D029FE00DC5
:100FD000F11D4E9DE00DF11D5E9DF00D4F9DF00D3C
:100FE0007F936F93BF92AF925F934F93D5010E940F
:100FF0005C098B01AC01D7010E945C09EB01E80F91
:10100000F91FD6010E9427082F913F91D6010E9417
:101010005C09C60FD71FE81FF91FAF91BF910E944F
:1010200027082F913F910E945C09C60FD71FE81F28
:10103000F91FD6010E945C09E60FF71F9801BE0157
:10104000CF0111240F911F91CF91DF9108950E943C
:101050005C09460F571FC81FD91F08F43196089521
:10106000689401C0E894F92FF12B12F00C946408F5
:10107000A0E0B0E0EEE3F8E00C94D608092E059469
:1010800022F40E94C008112392F4F0E80F26FFEF2B
:10109000E094F09400951095B094C094D094A194ED
:1010A000BF0ACF0ADF0AEF0AFF0A0F0B1F0B0E94CD
:1010B0006F0807FC0E94C008CDB7DEB7ECE00C94C7
:1010C000F208689401C0E8948F929F92CF93DF93C7
:1010D0000E946F08DF91CF919F908F900895882490
:1010E0009924F401E401B0E49F93AA279A158B0494
:1010F0009C04ED05FE05CF05D007A10798F4AD2FA0
:10110000DC2FCF2FFE2FE92D982C892E982F872F9B
:10111000762F652F542F432F322F2227B85031F7C7
:10112000BF9127C01B2EBF91BB27220F331F441F27
:10113000551F661F771F881F991F881C991CEE1F5B
:10114000FF1FCC1FDD1FAA1FBB1F8A149B04EC05C9
:10115000FD05CE05DF05A007B10748F08A189B08FA
:10116000EC09FD09CE09DF09A00BB10B21601A942F
:10117000E1F62EF49401AF01BE01CD01000C0895FB
:1011800060957095809590953095409550952195F6
:101190003F4F4F4F5F4F6F4F7F4F8F4F9F4F089580
:1011A0002F923F924F925F926F927F928F929F9277
:1011B000AF92BF92CF92DF92EF92FF920F931F9365
:1011C000CF93DF93CDB7DEB7CA1BDB0B0FB6F89416
:1011D000DEBF0FBECDBF09942A88398848885F8456
:1011E0006E847D848C849B84AA84B984C884DF80C7
:1011F000EE80FD800C811B81AA81B981CE0FD11DAB
:101200000FB6F894DEBF0FBECDBFED0108950F936A
:10121000083090F0982F872F762F652F542F432F6B
:10122000322F22270850F4CF220F331F441F551F9F
:10123000661F771F881F991F0A95B2F70F910895AF
:1012400097FB10F8169400080F93083098F0085098
:10125000232F342F452F562F672F782F892F902D2E
:10126000F4CF05949795879577956795579547950A
:10127000379527950A95AAF70F9108952A0D3B1DDA
:101280004C1D5D1D6E1D7F1D801F911F08952A1925
:101290003B094C095D096E097F09800B910B08958C
:1012A0000024A7FD00942A1730054005500560056D
:1012B0007005800590050895A29FB001B39FC001FD
:1012C000A39F700D811D1124911DB29F700D811D72
:1012D0001124911D0895BB274A3031F4992322F43B
:1012E000BDE2909581959F4F0C94A809BB272A30A9
:1012F00051F4992342F4BDE29095809570956195E3
:101300007F4F8F4F9F4F0C948609BB27FA01A62F62
:101310006217710581059105330B30FB66F0AA2732
:10132000660F771F881F991FAA1FA21710F0A21B14
:1013300063953850A9F7A05DAA3308F0A95DA19381
:1013400036F7B111B1931082CA010C94C109BB27C1
:10135000FB015527AA27880F991FAA1FA41710F071
:10136000A41B83955051B9F7A05DAA3308F0A95D7D
:10137000A193009779F7B111B1931192CB010C941D
:10138000C109DC01FC01672F71917723E1F73297E6
:1013900004C07C916D9370836291AE17BF07C8F350
:0613A0000895F894FFCF50
:1013A600016461746120726561646F757420726591
:1013B60073756C743A000D0A00646174612072657D
:1013C60061646F75743220726573756C743A000CC3
:0E13D60000696E697420726573756C743A005C
:00000001FF
