S00B00006C65642E73726563E4
S11300000C9434000C943E000C943E000C943E007E
S11300100C943E000C943E000C943E000C943E0064
S11300200C943E000C943E000C943E000C943E0054
S11300300C943E000C943E000C943E000C943E0044
S11300400C943E000C943E000C943E000C943E0034
S11300500C943E000C943E000C943E000C943E0024
S11300600C943E000C943E0011241FBECFEFD8E048
S1130070DEBFCDBF0E9440000C9425010C9400000B
S1130080259A2D9880E22FEF33ED90E321503040F4
S11300909040E1F700C0000095B1982795B92FEF83
S11300A035EA9EE0215030409040E1F700C0000066
S11300B095B1982795B92FEF39E698E12150304052
S11300C09040E1F700C0000095B1982795B92FEF53
S11300D031EE94E0215030409040E1F700C0000040
S11300E095B1982795B92FEF39E698E12150304022
S11300F09040E1F700C0000095B1982795B92FEF23
S113010031EE94E0215030409040E1F700C000000F
S113011095B1982795B92FEF3FE097E221503040F1
S11301209040E1F700C0000095B1982795B92FEFF2
S113013031EE94E0215030409040E1F700C00000DF
S113014095B1982795B92FEF3FE097E221503040C1
S11301509040E1F700C0000095B1982795B92FEFC2
S113016031EE94E0215030409040E1F700C00000AF
S113017095B1982795B92FEF39E698E12150304091
S11301809040E1F700C0000095B1982795B92FEF92
S113019031EE94E0215030409040E1F700C000007F
S11301A095B1982795B92FEF39E698E12150304061
S11301B09040E1F700C0000095B1982795B92FEF62
S11301C035EA9EE0215030409040E1F700C0000045
S11301D095B1982795B92FEF39E698E12150304031
S11301E09040E1F700C0000095B1982795B92FEF32
S11301F035EA9EE0215030409040E1F700C0000015
S113020095B1982795B92FEF39E698E12150304000
S11302109040E1F700C0000095B1982795B92FEF01
S113022035EA9EE0215030409040E1F700C00000E4
S113023095B1982795B92FEF37EA91E621503040D0
S11102409040E1F700C000001ECFF894FFCFFD
S9030000FC
