S00B00006C65642E73726563E4
S11300000C9434000C943E000C943E000C943E007E
S11300100C943E000C943E000C943E000C943E0064
S11300200C943E000C943E000C943E000C943E0054
S11300300C943E000C943E000C943E000C943E0044
S11300400C943E000C943E000C943E000C943E0034
S11300500C943E000C943E000C943E000C943E0024
S11300600C943E000C943E0011241FBECFEFD8E048
S1130070DEBFCDBF0E9440000C9459000C940000D8
S1130080259A2D9890E22FEF3BE782E921503040EA
S11300908040E1F700C0000085B1892785B92FEFC2
S11300A031EE84E0215030408040E1F700C0000090
S10900B0EACFF894FFCF33
S9030000FC
