S00B00006932632E737265631B
S11300000C9434000C9451000C9451000C94510045
S11300100C9451000C9451000C9451000C94510018
S11300200C9451000C9451000C9451000C94510008
S11300300C9451000C9451000C9451000C945100F8
S11300400C9451000C9451000C94DB000C940901A5
S11300500C9451000C9451000C9451000C945100D8
S11300600C9451000C94510011241FBECFEFD8E022
S1130070DEBFCDBF11E0A0E0B1E0EEE4F3E002C0EA
S113008005900D92A232B107D9F721E0A2E2B1E0C6
S113009001C01D92A53CB207E1F70E9453000C94E5
S11300A0A5010C9400000E94940087E690E00E9451
S11300B0330178948CEE0E94A300809300014AE0FF
S11300C06BE671E090E00E94700181E091E00E9493
S11300D061018BE691E00E94610187E191E00E9459
S11300E061018091000181111EC081EA0E94C1005A
S11300F08DEE0E94A3000E94CC00C82F0E94D7005E
S113010040E16BE671E08C2F90E00E9470018AE17F
S113011091E00E9461018BE691E00E94610187E118
S113012091E00E946101FFCF87B18F7C87B988B1CC
S1130130806388B9E9EBF0E080818C7F808388E973
S11301408093B800089594EA9093BC00ECEBF0E03F
S113015090819923ECF78093BB0084E88093BC00E2
S1130160ECEBF0E080818823ECF79091B900987F64
S1130170983129F081E0903419F480E0089580E00A
S113018008958093BB0084E88093BC00ECEBF0E01E
S113019080818823ECF7089584EC8093BC00ECEB19
S11301A0F0E080818823ECF78091BB00089584E916
S11301B08093BC0008951F920F920FB60F921124E2
S11301C02F938F939F93EF93FF938091C00020917F
S11301D0C6008C71E0912401EF5FEF7190912301CF
S11301E0E91739F0E0932401F0E0E95DFE4F208344
S11301F001C082E090912201892B80932201FF911A
S1130200EF919F918F912F910F900FBE0F901F90A0
S113021018951F920F920FB60F9211248F939F93EC
S1130220EF93FF939091260180912501981769F02F
S1130230E0912501EF5FEF71E0932501F0E0E95BC8
S1130240FE4F80818093C60005C0E1ECF0E0808120
S11302508F7D8083FF91EF919F918F910F900FBEBF
S11302600F901F901895109226011092250110925C
S113027024011092230199231CF422E02093C0004E
S113028090789093C5008093C40088E98093C1005E
S113029086E08093C2000895209126012F5F2F717C
S11302A0909125012917E1F3E22FF0E0E95BFE4F7D
S11302B0808320932601E1ECF0E0808180628083DA
S11302C00895CF93DF93EC018881882331F0219640
S11302D00E944C0189918111FBCFDF91CF91089548
S11302E0BB274A3031F4992322F4BDE290958195DD
S11302F09F4F0C947C01BB27FB015527AA27880F2D
S1130300991FAA1FA41710F0A41B83955051B9F785
S1130310A05DAA3308F0A95DA193009779F7B11104
S1130320B1931192CB010C949501DC01FC01672F70
S113033071917723E1F7329704C07C916D937083B8
S11103406291AE17BF07C8F30895F894FFCF7B
S113034E016461746120726561646F757432207228
S113035E6573756C743A000D0A0064617461322021
S105036E000089
S9030000FC
