S01500006C65645F696E746572727570742E737265638E
S11300000C9434000C9446000C9446000C94460066
S11300100C9446000C9446000C9446000C94460044
S11300200C9446000C9446000C9446000C94460034
S11300300C9446000C94C5000C9446000C944600A5
S11300400C9446000C9446000C9446000C94460014
S11300500C9446000C9446000C9446000C94460004
S11300600C9446000C94460011241FBECFEFD8E038
S1130070DEBFCDBF21E0A0E0B1E001C01D92A230FF
S1130080B207E1F70E9478000C9407010C94000079
S1130090FC01408121E030E002C0220F331F6A9549
S11300A0E2F7242B20830895FC01908121E030E0C5
S11300B002C0220F331F6A95E2F72095292320837B
S11300C00895FC01408121E030E002C0220F331F7B
S11300D06A95E2F7242720830895FC01208181E0BA
S11300E090E002C0880F991F6A95E2F78223089571
S11300F065E084E290E00E94480065E085E290E0DB
S11301000E94540064E084E290E00E94480064E0AD
S113011085E290E00E94540063E084E290E00E9453
S1130120480063E085E290E00E94540062E084E2CB
S113013090E00E94480062E085E290E00E94540052
S1130140E1E8F0E080818B7F80838081836080831D
S1130150EFE6F0E08081816080837894C1E8D0E0AC
S113016061E086E290E00E946D00811107C0888101
S11301708A7F8883888182608883F2CF88818B7F9D
S11301808883888183608883EBCF1F920F920FB698
S11301900F9211242F933F934F935F936F937F9309
S11301A08F939F93AF93BF93EF93FF93809100013D
S11301B0909101018830910528F01092010110926C
S11301C0000107C0019690930101809300010097FC
S11301D031F465E085E290E00E94610007C0019778
S11301E029F462E085E290E00E946100FF91EF91C2
S11301F0BF91AF919F918F917F916F915F914F913B
S11302003F912F910F900FBE0F901F901895F89467
S1050210FFCF1A
S9030000FC
