S0110000372D7365676D656E742E73726563BC
S11300000C9434000C9451000C9451000C94510045
S11300100C9451000C9451000C9451000C94510018
S11300200C9451000C9451000C9451000C94510008
S11300300C9451000C941B010C9451000C9451002D
S11300400C9452010C9451000C9451000C945100E6
S11300500C9451000C9451000C9451000C945100D8
S11300600C9451000C94510011241FBECFEFD8E022
S1130070DEBFCDBF11E0A0E0B1E0E8E1F3E002C0F3
S113008005900D92A031B107D9F721E0A0E1B1E0CC
S113009001C01D92A431B207E1F70E94FB000C9449
S11300A08A010C940000FC01408121E030E002C090
S11300B0220F331F6A95E2F7242B20830895FC0155
S11300C0908121E030E002C0220F331F6A95E2F7ED
S11300D02095292320830895FC01408121E030E00C
S11300E002C0220F331F6A95E2F7242B2083089560
S11300F064E08AE290E00E94530067E08AE290E0C4
S11301000E94530060E084E290E00E94530008954E
S11301101F93CF93DF93E82FF0E0EC5FFE4F108145
S1130120E62FF0E0E050FF4FD08164E08BE290E0F6
S11301300E945F0067E08BE290E00E945F0060E055
S113014085E290E00E945F0085E08A95F1F7000067
S1130150C8E010FF06C060E085E290E00E946C00F9
S113016005C060E085E290E00E945F0085E08A952A
S1130170F1F7000067E08BE290E00E946C0085E0FC
S11301808A95F1F7000067E08BE290E00E945F003F
S11301901695C150F1F6C8E0D0FF06C060E085E2D4
S11301A090E00E946C0005C060E085E290E00E944F
S11301B05F0085E08A95F1F7000067E08BE290E04C
S11301C00E946C0085E08A95F1F7000067E08BE2FD
S11301D090E00E945F00D695C150F1F664E08BE296
S11301E090E00E946C0085E08A95F1F70000DF91B1
S11301F0CF911F9108950E94780060E083E00E94EF
S11302008800E1E8F0E080818B7F808380818360D7
S11302108083EFE6F0E080818160808385B58C7F08
S113022085BD85B5846085BDEEE6F0E080818160A2
S113023080837894FFCF1F920F920FB60F921124F0
S11302402F938F939F93809112018C3308F58091A3
S113025012018F5F80931201909112018DEC989F8F
S1130260912D112496959695969590931101209130
S11302701201289F812D1124869586958695880FD5
S1130280982F990F990F890F281B2093130102C0EF
S1130290109212019F918F912F910F900FBE0F908A
S11302A01F9018951F920F920FB60F9211242F933F
S11302B03F934F935F936F937F938F939F93AF93EA
S11302C0BF93EF93FF938091100181110BC0809134
S11302D0110161E00E948800809110018F5F80937A
S11302E0100107C08091130160E00E948800109201
S11302F01001FF91EF91BF91AF919F918F917F91E9
S11303006F915F914F913F912F910F900FBE0F907E
S10B03101F901895F894FFCF2B
S113031810204080039F250D9949411F0109FF00C2
S9030000FC
