S00B00006C63642E73726563E6
S11300000C9434000C9451000C9451000C94510045
S11300100C9451000C9451000C9451000C94510018
S11300200C9451000C9443010C9451000C94510015
S11300300C9451000C9451000C9451000C945100F8
S11300400C94B3010C9451000C9451000C94510085
S11300500C9451000C9451000C9451000C945100D8
S11300600C9451000C94510011241FBECFEFD8E022
S1130070DEBFCDBF11E0A0E0B1E0E6E6F4E002C0EF
S113008005900D92AC34B107D9F721E0ACE4B1E0AE
S113009001C01D92A235B207E1F70E94FA000C9448
S11300A031020C940000299A85E08A95F1F700004A
S11300B029980895CF93C82F662311F0289A01C078
S11300C02898549A559A569A579A5F985E985D98CC
S11300D05C98CC230CF45F9AC6FD5E9AC5FD5D9ACC
S11300E0C4FD5C9A0E9453005F985E985D985C988A
S11300F0C3FD5F9AC2FD5E9AC1FD5D9AC0FD5C9A24
S11301000E9453005C9A5D9A5E9A5F9A8FE79CE026
S11301100197F1F700C00000CF91089560E00E94BC
S11301205A00089561E00E945A000895611104C0C4
S113013080580E948E00089580540E948E00089575
S113014081E00E948E00089561E00E945A000895A3
S1130150CF93DF93EC012196FC018081882329F061
S11301600E94A40089918111FBCFDF91CF91089562
S1130170CF93C82F209A559A219A549A559A569AF1
S1130180579A8FEF99EF0197F1F700C000005D9A3D
S11301905C9A0E9453008FE19EE40197F1F700C03E
S11301A000000E9453008FEF90E00197F1F700C028
S11301B000000E9453008FEF90E00197F1F700C018
S11301C000005C980E9453008FEF90E00197F1F7D4
S11301D000C0000088E20E948E0088E00E948E0029
S11301E00E94A00086E00E948E008C2F0E948E0048
S11301F0CF9108958CE00E94B80060E081E00E94F5
S1130200960088E291E00E94A80061E081E00E94EB
S1130210960084E391E00E94A80080E40E948E008E
S1130220C0E0D1E008E211E089910E949200C01779
S1130230D107D1F780E80E948E0060E080E00E9440
S1130240960080E090E00E94A80060E081E00E94B7
S1130250960081E00E94A40060E082E00E94960083
S113026082E00E94A40060E083E00E94960083E0A4
S11302700E94A40060E084E00E94960084E00E9452
S1130280A4007894FFCF1F920F920FB60F921124FF
S11302902F933F934F935F936F937F938F939F938A
S11302A0AF93BF93EF93FF93CF93DF9300D0CDB77A
S11302B0DEB71A821982809151018F5F863018F45B
S11302C0809351013BC010925101809150018F5F86
S11302D08A3018F48093500110C01092500180911C
S11302E04F018F5F80934F018C3338F080914E0122
S11302F08F5F80934E0110924F0160E087E00E946F
S1130300960080915001805D0E94A40080914F016D
S11303104AE0BE016F5F7F4F90E00E94FC0160E005
S113032084E00E94960080914F018A3018F480E3A3
S11303300E94A400CE0101960E94A8000F900F9085
S1130340DF91CF91FF91EF91BF91AF919F918F91E9
S11303507F916F915F914F913F912F910F900FBEBD
S11303600F901F9018951F920F920FB60F921124A1
S11303702F933F934F935F936F937F938F939F93A9
S1130380AF93BF93EF93FF9380914D0161E08F5F33
S11303900E94960080914C010E94A40080914C011F
S11303A08F5F853018F480934C0107C010924C0184
S11303B080914D018F5F80934D0180914D018A3072
S11303C050F010924D0161E081E00E94960080E4BB
S11303D091E00E94A800FF91EF91BF91AF919F918E
S11303E08F917F916F915F914F913F912F910F90DA
S11303F00FBE0F901F901895BB274A3031F49923F4
S113040022F4BDE2909581959F4F0C940802BB277E
S1130410FB015527AA27880F991FAA1FA41710F0BC
S1130420A41B83955051B9F7A05DAA3308F0A95DC8
S1130430A193009779F7B111B1931192CB010C9468
S11304402102DC01FC01672F71917723E1F73297D8
S113045004C07C916D9370836291AE17BF07C8F39B
S10904600895F894FFCF9B
S11304661010101010101010181818181818181842
S11304761C1C1C1C1C1C1C1C1E1E1E1E1E1E1E1EA2
S11304861F1F1F1F1F1F1F1F30303A30302E3020F2
S113049620206100622020202020202020206300CC
S10F04A620202020202020202020000006
S9030000FC
