:100000000C9434000C9451000C9451000C94510049
:100010000C9451000C9451000C9451000C9451001C
:100020000C9451000C9421010C9451000C9451003B
:100030000C9451000C9451000C9451000C945100FC
:100040000C94A2010C9451000C9451000C9451009A
:100050000C9451000C9451000C9451000C945100DC
:100060000C9451000C94510011241FBECFEFD8E026
:10007000DEBFCDBF11E0A0E0B1E0E4E4F4E002C0F7
:1000800005900D92AE33B107D9F721E0AEE3B1E0B0
:1000900001C01D92A434B207E1F70E94FA000C944B
:1000A00020020C940000299A85E08A95F1F700005F
:1000B00029980895CF93C82F662311F0289A01C07C
:1000C0002898549A559A569A579A5F985E985D98D0
:1000D0005C98CC230CF45F9AC6FD5E9AC5FD5D9AD0
:1000E000C4FD5C9A0E9453005F985E985D985C988E
:1000F000C3FD5F9AC2FD5E9AC1FD5D9AC0FD5C9A28
:100100000E9453005C9A5D9A5E9A5F9A8FE79CE02A
:100110000197F1F700C00000CF91089560E00E94C0
:100120005A00089561E00E945A000895611104C0C8
:1001300080580E948E00089580540E948E00089579
:1001400081E00E948E00089561E00E945A000895A7
:10015000CF93DF93EC012196FC018081882329F065
:100160000E94A40089918111FBCFDF91CF91089566
:10017000CF93C82F209A559A219A549A559A569AF5
:10018000579A8FEF99EF0197F1F700C000005D9A41
:100190005C9A0E9453008FE19EE40197F1F700C042
:1001A00000000E9453008FEF90E00197F1F700C02C
:1001B00000000E9453008FEF90E00197F1F700C01C
:1001C00000005C980E9453008FEF90E00197F1F7D8
:1001D00000C0000088E20E948E0088E00E948E002D
:1001E0000E94A00086E00E948E008C2F0E948E004C
:1001F000CF9108958CE00E94B80060E081E00E94F9
:10020000960088E291E00E94A80080E40E948E009F
:10021000C0E0D1E008E211E089910E949200C0178D
:10022000D107D1F780E80E948E00E0E7F0E08081FE
:1002300081608083E1EBF0E0808187608083789447
:10024000FFCF1F920F920FB60F9211242F933F935F
:100250004F935F936F937F938F939F93AF93BF93CE
:10026000EF93FF93CF93DF9300D0CDB7DEB71A8221
:100270001982809143018F5F863018F48093430187
:100280004CC010924301809142018F5F8A3018F474
:100290008093420110C010924201809141018F5F12
:1002A000809341018C3338F0809140018F5F8093BF
:1002B00040011092410160E087E00E949600809129
:1002C0004201805D0E94A400809141014AE0BE018C
:1002D0006F5F7F4F90E00E94EB0160E084E00E943E
:1002E0009600809141018A3018F480E30E94A400B6
:1002F000CE0101960E94A80060E082E00E94960074
:10030000809140014AE0BE016F5F7F4F90E00E9404
:10031000EB01CE0101960E94A8000F900F90DF9193
:10032000CF91FF91EF91BF91AF919F918F917F916D
:100330006F915F914F913F912F910F900FBE0F9052
:100340001F9018951F920F920FB60F9211242F93A2
:100350003F934F935F936F937F938F939F93AF934D
:10036000BF93EF93FF9380913F0161E08F5F0E9405
:10037000960080913E010E94A40080913E018F5F13
:10038000853018F480933E0107C010923E018091A1
:100390003F018F5F80933F0180913F018A3050F091
:1003A00010923F0161E081E00E94960083E391E0BA
:1003B0000E94A800FF91EF91BF91AF919F918F9103
:1003C0007F916F915F914F913F912F910F900FBE51
:1003D0000F901F901895BB274A3031F4992322F4CF
:1003E000BDE2909581959F4F0C94F701BB27FB01CF
:1003F0005527AA27880F991FAA1FA41710F0A41B1E
:1004000083955051B9F7A05DAA3308F0A95DA19377
:10041000009779F7B111B1931192CB010C941002AE
:10042000DC01FC01672F71917723E1F7329704C05B
:100430007C916D9370836291AE17BF07C8F30895E6
:04044000F894FFCF5E
:100444001010101010101010181818181818181868
:100454001C1C1C1C1C1C1C1C1E1E1E1E1E1E1E1EC8
:100464001F1F1F1F1F1F1F1F30303A30302E302018
:0E0474002020002020202020202020202000FA
:00000001FF
