:100000000C9434000C9451000C9451000C94510049
:100010000C9451000C9451000C9451000C9451001C
:100020000C9451000C9451000C9451000C9451000C
:100030000C9451000C94CD010C9451000C9451007F
:100040000C94C2030C9451000C947B040C94A904EE
:100050000C9451000C9451000C9451000C945100DC
:100060000C9451000C94510011241FBECFEFD8E026
:10007000DEBFCDBF11E0A0E0B1E0E8E9FBE002C0E7
:1000800005900D92AE33B107D9F721E0AEE3B1E0B0
:1000900001C01D92A83EB207E1F70E9453000C94E4
:1000A000CA050C940000CF93DF93CDB7DEB7289735
:1000B0000FB6F894DEBF0FBECDBF0E94290487E6BD
:1000C00090E00E94D304E1E8F0E080818A7F8083A1
:1000D000808182608083EFE6F0E0808181608083B0
:1000E00085B58C7F85BD85B5846085BDEEE6F0E085
:1000F00080818160808378948CEE0E9438048093A4
:1001000005014AE06BE871E090E00E94640586E03A
:1001100091E00E9401058BE891E00E9401058FE0CB
:1001200091E00E940105809105018111AEC088E82F
:100130000E9456048DEE0E9438040E946104B82E7D
:100140000E946104282E0E946104C82E0E9461044E
:10015000382E0E946104D82E0E946104482E0E940D
:100160006104E82E0E946104582E0E946104F82E5A
:100170000E946104682E0E946104082F0E9461049D
:10018000782E0E946104182F0E946104882E0E941C
:10019000610488870E946104982E0E9461048F8305
:1001A0000E946104A82E0E94610489830E94610458
:1001B0008A830E9461048B830E9461048C830E9465
:1001C00061048D830E9461048E830E946C040E94EE
:1001D00077048B2D90E092299093AF018093AE012C
:1001E0008C2D90E093299093B3018093B2018D2DD3
:1001F00090E094299093DB018093DA018E2D90E0BA
:1002000095299093C8018093C7018F2D90E096297E
:100210009093B9018093B801802F90E09729909333
:10022000CA018093C901812F90E098299093BB0166
:100230008093BA012885822F90E099299093BE017E
:100240008093BD013F81832F90E09A299093DD0137
:100250008093DC012981822F90E03A81932B909347
:10026000AD018093AC012B81822F90E03C81932BD8
:100270009093CC018093CB012D81822F90E03E8121
:10028000932B9093D9018093D8018CEE0E9438046F
:10029000809305014AE06BE871E090E00E946405FC
:1002A00082E191E00E9401058BE891E00E94010546
:1002B0008FE091E00E9401058091050181113DC010
:1002C00081EE0E9456048DEE0E9438040E94610463
:1002D0008A830E946104D82E0E946104E82E0E9445
:1002E0006104082F0E946104182F0E946104898311
:1002F0000E946C04F82E0E9477042A81822F90E0DD
:100300009D299093DF018093DE01E092D70130E1D7
:10031000039FC00111249093B1018093B001129505
:100320001F70398120E1329FC0011124812B9093ED
:10033000D2018093D101F092BC018CEE0E9438046E
:10034000809305014AE06BE871E090E00E9464054B
:100350008CE191E00E9401058BE891E00E9401058B
:100360008FE091E00E94010580910501811114C088
:1003700085EF0E94560480EB0E94560482EF0E9493
:10038000560485E00E94560484EF0E94560487EBD1
:100390000E9456040E947704FFCF1F920F920FB65F
:1003A0000F921124CF92DF92EF92FF920F931F933F
:1003B0002F933F934F935F936F937F938F939F936D
:1003C000AF93BF93EF93FF93CF93DF93CDB7DEB798
:1003D0002897DEBFCDBF80914001909141018739C0
:1003E000910534F401969093410180934001B0C08F
:1003F00010924101109240018CEE0E9438048093CB
:1004000005014AE06BE871E090E00E94640589E232
:1004100091E00E9401058BE891E00E9401058FE0C8
:1004200091E00E94010580910501811191C087EF43
:100430000E9456048DEE0E9438048E010F5F1F4FFC
:100440007E0189E0E80EF11C0E946104F8018193AD
:100450008F01EE15FF05C1F70E9477048C8190E0B3
:10046000A0E0B0E0AC01BD01032E3CE0440F551FFD
:10047000661F771F3A95D1F7302D9D81892F90E027
:10048000A0E0B0E0880F991FAA1FBB1F880F991F1B
:10049000AA1FBB1F880F991FAA1FBB1F880F991F78
:1004A000AA1FBB1F842B952BA62BB72B2E81229521
:1004B0002F70822B0F8110E020E030E0322F212FAF
:1004C000102F00274885042B498150E060E070E040
:1004D0006A017B010B2EBCE0CC0CDD1CEE1CFF1C6A
:1004E000BA95D1F7B02D5A81452F50E060E070E009
:1004F000440F551F661F771F440F551F661F771F38
:10050000440F551F661F771F440F551F661F771F27
:100510004C295D296E297F29EB81E295EF704E2BE6
:100520004093D3015093D4016093D5017093D601C9
:100530008093B4019093B501A093B601B093B70135
:1005400000938701109388012093890130938A01D9
:1005500028960FB6F894DEBF0FBECDBFDF91CF91C6
:10056000FF91EF91BF91AF919F918F917F916F918B
:100570005F914F913F912F911F910F91FF90EF90BD
:10058000DF90CF900F900FBE0F901F9018954F9255
:100590005F926F927F928F929F92AF92BF92CF9213
:1005A000DF92EF92FF928090E0019090E101A090A5
:1005B000E201B090E3012CE2921A21E0A20AB10814
:1005C0006B017C010B2EBEE0CC0CDD1CEE1CFF1C75
:1005D000BA95D1F7B02D8091B0019091B101092E5B
:1005E000000CAA0BBB0B072E74E1880F991FAA1FE2
:1005F000BB1F7A95D1F7702DC81AD90AEA0AFB0AEF
:10060000A091D101B091D201A50194010E944D05A4
:10061000C61AD70AE80AF90A30E4D30EE11CF11C25
:100620000B2EBFE0F594E794D794C794BA95D1F711
:10063000B02DA091D701B0E0A50194010E94420520
:100640002B013C01032E3BE075946794579447942B
:100650003A95D1F7302D40E8540E611C711CA091E1
:10066000BC01B0E0A50194010E944205052E5AE0AC
:1006700095958795779567955A95D1F7502DA30154
:1006800092010E941005DC01CB01072E7AE0B5959E
:10069000A795979587957A95D1F7702D9C01AD0117
:1006A000405E5F4FA091DE01B091DF010E944D05D9
:1006B000DC01CB01905EAF4FBF4FBC01CD01052ED9
:1006C0005EE095958795779567955A95D1F7502D6A
:1006D000A70196010E9410056B017C01052E5FE0C9
:1006E00095958795779567955A95D1F7502D9B01EC
:1006F000AC010E9410059B01AC01689416F8559559
:100700004795379527951694D1F7A0910001B0E051
:100710000E944205DC01CB01689413F8B595A795BA
:10072000979587951694D1F7A7019601281B390B49
:100730004A0B5B0BDA01C9011AF480E090E0DC019E
:1007400081309105A10539E1B30724F080E090E004
:10075000A0E0B9E1BC01CD01052E5CE0959587953F
:10076000779567955A95D1F7502DFF90EF90DF90D0
:10077000CF90BF90AF909F908F907F906F905F9041
:100780004F9008951F920F920FB60F9211242F933E
:100790003F934F935F936F937F938F939F93AF9309
:1007A000BF93EF93FF9380913E0190913F01813D74
:1007B00027E0920734F4019690933F0180933E0125
:1007C00037C010923F0110923E0185E391E00E94F4
:1007D0000105609187017091880180918901909154
:1007E0008A010E94C70220910101309102014091CB
:1007F0000301509104010E942005CA01B901209310
:10080000CD013093CE014093CF015093D0012AE027
:100810004BE851E00E946F0587E391E00E940105DB
:100820008BE891E00E9401058FE091E00E940105B4
:10083000FF91EF91BF91AF919F918F917F916F91B8
:100840005F914F913F912F910F900FBE0F901F908E
:10085000189587B18F7C87B988B1806388B9E9EB37
:10086000F0E080818C7F808388E98093B8000895D0
:1008700094EA9093BC00ECEBF0E090819923ECF7C4
:100880008093BB0084E88093BC00ECEBF0E08081B7
:100890008823ECF79091B900987F983129F081E096
:1008A000903419F480E0089580E008958093BB00AF
:1008B00084E88093BC00ECEBF0E080818823ECF7C7
:1008C000089584EC8093BC00ECEBF0E080818823F9
:1008D000ECF78091BB00089584E88093BC00ECEBBA
:1008E000F0E080818823ECF78091BB00089584E9D3
:1008F0008093BC0008951F920F920FB60F9211249F
:100900002F938F939F93EF93FF938091C00020913B
:10091000C6008C71E0914401EF5FEF71909143014B
:10092000E91739F0E0934401F0E0E95BFE4F2083E2
:1009300001C082E090914201892B80934201FF9196
:10094000EF919F918F912F910F900FBE0F901F905D
:1009500018951F920F920FB60F9211248F939F93A9
:10096000EF93FF939091460180914501981769F0AC
:10097000E0914501EF5FEF71E0934501F0E0E95947
:10098000FE4F80818093C60005C0E1ECF0E08081DD
:100990008F7D8083FF91EF919F918F910F900FBE7C
:1009A0000F901F90189510924601109245011092D9
:1009B00044011092430199231CF422E02093C000CB
:1009C00090789093C5008093C40088E98093C1001B
:1009D00086E08093C2000895209146012F5F2F7119
:1009E000909145012917E1F3E22FF0E0E959FE4F1C
:1009F000808320934601E1ECF0E080818062808377
:100A00000895CF93DF93EC018881882331F02196FC
:100A10000E94EC0489918111FBCFDF91CF91089561
:100A2000DB018F939F930E944205BF91AF91A29FDC
:100A3000800D911DA39F900DB29F900D11240895DC
:100A4000A1E21A2EAA1BBB1BFD010DC0AA1FBB1FD2
:100A5000EE1FFF1FA217B307E407F50720F0A21B44
:100A6000B30BE40BF50B661F771F881F991F1A94B1
:100A700069F760957095809590959B01AC01BD01DB
:100A8000CF0108950E945505A59F900DB49F900D2C
:100A9000A49F800D911D11240895B7FF0C94420569
:100AA0000E944205821B930B0895A29FB001B39F41
:100AB000C001A39F700D811D1124911DB29F700D67
:100AC000811D1124911D0895BB274A3031F49923CB
:100AD00022F4BDE2909581959F4F0C94A105BB2710
:100AE0002A3051F4992342F4BDE290958095709597
:100AF00061957F4F8F4F9F4F0C947F05BB27FA0165
:100B0000A62F6217710581059105330B30FB66F046
:100B1000AA27660F771F881F991FAA1FA21710F018
:100B2000A21B63953850A9F7A05DAA3308F0A95D10
:100B3000A19336F7B111B1931082CA010C94BA0592
:100B4000BB27FB015527AA27880F991FAA1FA417A7
:100B500010F0A41B83955051B9F7A05DAA3308F09B
:100B6000A95DA193009779F7B111B1931192CB01CF
:100B70000C94BA05DC01FC01672F71917723E1F732
:100B8000329704C07C916D9370836291AE17BF075A
:080B9000C8F30895F894FFCFAB
:100B98004B0004000001726561646F757420000DDC
:100BA8000A00726561646F7574322000696E697439
:100BB80020726573756C74200064617461207265BD
:0E0BC80061643A20000C0068756D3A20000050
:00000001FF
