S00F000050726F6A656B742E7372656336
S11300000C9434000C9451000C9451000C94510045
S11300100C9451000C9451000C9451000C94510018
S11300200C9451000C941E080C9451000C94510033
S11300300C9451000C9454030C9451000C945100F2
S11300400C9451000C9451000C9451000C945100E8
S11300500C9451000C9451000C9451000C945100D8
S11300600C9451000C94510011241FBECFEFD8E022
S1130070DEBFCDBF11E0A0E0B1E0E6EFFAE102C0DF
S113008005900D92A835B107D9F721E0A8E5B1E0B4
S113009001C01D92A63CB207E1F70E9485010C94B1
S11300A0790D0C940000FC01808121E030E002C055
S11300B0220F331F6A95E2F7922F9095892380834C
S11300C08181282B21830895FC01908121E030E077
S11300D002C0220F331F6A95E2F72095292320835B
S11300E00895FC01208181E090E002C0880F991FEF
S11300F06A95E2F78223089585B1826085B985E027
S11301008A95F1F7000085B18D7F85B90895CF9365
S1130110C82F662321F085B1816085B903C085B1FC
S11301208E7F85B98AB180618AB98AB180628AB9C1
S11301308AB180648AB98AB180688AB98BB18F77B1
S11301408BB98BB18F7B8BB98BB18F7D8BB98BB115
S11301508F7E8BB9CC231CF48BB180688BB9C6FF1E
S113016003C08BB180648BB9C5FF03C08BB18062BF
S11301708BB9C4FF03C08BB180618BB90E947C0032
S11301808BB18F778BB98BB18F7B8BB98BB18F7D13
S11301908BB98BB18F7E8BB9C3FF03C08BB18068E1
S11301A08BB9C2FF03C08BB180648BB9C1FF03C09C
S11301B08BB180628BB9C0FF03C08BB180618BB9F6
S11301C00E947C008BB180618BB98BB180628BB94A
S11301D08BB180648BB98BB180688BB987EB9BE062
S11301E00197F1F700C00000CF91089560E00E94EC
S11301F087000895611104C080580E94F600089594
S113020080540E94F600089581E00E94F60008954B
S113021061E00E9487000895CF93DF93FC0103C03F
S11302200E940801FE01EF01219680818111F8CF1F
S1130230DF91CF910895CF93C82F84B1816084B9A1
S11302408AB180628AB984B1826084B98AB18061DA
S11302508AB98AB180628AB98AB180648AB98AB15A
S113026080688AB98FEF99EF0197F1F700C0000019
S11302708BB180628BB98BB180618BB90E947C0099
S11302808FE19EE40197F1F700C000000E947C001A
S11302908FEF90E00197F1F700C000000E947C000E
S11302A08FEF90E00197F1F700C000008BB18F7ED3
S11302B08BB90E947C008FEF90E00197F1F700C0AA
S11302C0000088E20E94F60088E00E94F6000E9486
S11302D0040186E00E94F6008C2F0E94F600CF9164
S11302E00895ECE7F0E09081907F892B8083EAE722
S11302F0F0E080818064808380917A0086FDFCCF69
S113030080917800909179000895CF93DF93CDB7D1
S1130310DEB768970FB6F894DEBF0FBECDBF84B1C9
S1130320826084B984B1846084B98AB18F6D8AB9DA
S11303308BB180628BB9E0E8F0E0808182688083D1
S113034001E810E0F80180818A6180838FE19EE4F6
S11303509093870080938600ECE7F0E080818064CE
S11303608083EAE7F0E08081836080838081806815
S1130370808366E087E290E00E94530066E088E2B2
S113038090E00E9464008CE00E941B0160E080E029
S11303900E94FA008DE091E00E940C0160E088E088
S11303A00E94FA0086E191E00E940C010E947A0901
S11303B0F80180818A7F8083808182608083EFE678
S11303C0F0E0808181608083E1EBF0E080818A7FCE
S11303D08083808182608083E0E7F0E080818160B7
S11303E0808378948CEE0E94890980930C0181119A
S11303F096C088E80E94A6098DEE0E94890900E053
S113040010E00BC00E94B009E1E0F0E0EC0FFD1F2A
S1130410E00FF11F80830F5F1F4F0931110594F323
S11304200E94BA09182F0E94C4098A8190E0982F6B
S113043088272981822B90938601809385018C8162
S113044090E0982F88272B81822B90938C018093A6
S11304508B018E8190E0982F88272D81822B909399
S1130460B9018093B801888590E0982F88272F815F
S1130470822B90939E0180939D018A8590E0982F12
S113048088272985822B90939301809392018C85F0
S113049090E0982F88272B85822B9093A00180933E
S11304A09F018E8590E0982F88272D85822B90932D
S11304B0950180939401888990E0982F88272F854F
S11304C0822B90939801809397018A8990E0982FCA
S11304D088272989822B9093BB018093BA018C8948
S11304E090E0982F88272B89822B90938401809306
S11304F083018E8990E0982F88272D89822B9093F1
S1130500A2018093A101888D90E0982F88272F89DC
S1130510822B9093B7018093B60110938D018CEEDA
S11305200E94890980930C01811141C081EE0E94CF
S1130530A6098DEE0E94890900E010E00BC00E941C
S1130540B009E1E0F0E0EC0FFD1FE00FF11F808344
S11305500F5F1F4F0630110594F30E94BA09182F3C
S11305600E94C4098A8190E0982F88272981822BD0
S11305709093BD018093BC018B818093AD012D814B
S11305808C81F0E18F9FC001112490938A018093A4
S1130590890122952F708E8130E1839FC00111243F
S11305A0822B9093A8018093A701109396018CEE5F
S11305B00E94890980930C01811114C085EF0E9467
S11305C0A60980EB0E94A60982EF0E94A60985E095
S11305D00E94A60984EF0E94A60987EB0E94A6093F
S11305E00E94C4094D991CC081E00E9471019C01C4
S11305F0220F331F220F331F820F931F9093890002
S11306008093880082E00E9471019C01220F331FB5
S1130610220F331F820F931F90938B0080938A00C5
S11306204D9BE0CFEAE7F0E0808180648083809195
S11306307A0086FDFCCF6091780070917900709308
S113064088016093870180E090E00E94640A20E0C2
S113065030E040EB50E40E94F20A20E030E04AEF40
S113066053E40E94C9090E94350A7093890060937B
S11306708800609187017091880180E090E00E9479
S1130680640A20E030E040EB50E40E94F20A20E0EB
S113069030E04AEF53E40E94C9090E94350A70937E
S11306A08B0060938A009ECF1F920F920FB60F9219
S11306B011240F931F932F933F934F935F936F9343
S11306C07F938F939F93AF93BF93EF93FF93CF93B6
S11306D0DF93CDB7DEB72897DEBFCDBF8091590138
S11306E090915A018739910534F4019690935A01F7
S11306F0809359019EC010925A01109259018CEEB8
S11307000E94890980930C01811193C087EF0E9494
S1130710A6098DEE0E94890900E010E00BC00E943A
S1130720B009E1E0F0E0EC0FFD1FE00FF11F808362
S11307300F5F1F4F0830110594F30E94C4094981CB
S113074050E060E070E08A019B010F2EFCE0000F96
S1130750111F221F331FFA95D1F7F02D8A81482FDC
S113076050E060E070E0440F551F661F771F440F90
S1130770551F661F771F440F551F661F771F440FB1
S1130780551F661F771F402B512B622B732B8B81B8
S113079082958F70482B8C8190E0A0E0B0E08C01B2
S11307A09D010F2EFCE0000F111F221F331FFA952D
S11307B0D1F7F02D9D81892F90E0A0E0B0E0880F63
S11307C0991FAA1FBB1F880F991FAA1FBB1F880F41
S11307D0991FAA1FBB1F880F991FAA1FBB1F802B1D
S11307E0912BA22BB32B2E8122952F70822B0F815C
S11307F010E020E030E0322F212F102F0027E88571
S11308000E2B4093A9015093AA016093AB017093FE
S1130810AC0180938E0190938F01A0939001B093CB
S1130820910100935E0110935F0120936001309366
S1130830610128960FB6F894DEBF0FBECDBFDF91DD
S1130840CF91FF91EF91BF91AF919F918F917F9144
S11308506F915F914F913F912F911F910F910F9045
S11308600FBE0F901F9018954F925F926F927F92D8
S11308708F929F92AF92BF92CF92DF92EF92FF92AC
S11308806B017C01AB01BC01689412F87595679506
S1130890579547951694D1F740908501509086015D
S11308A0612C712CD301C201880F991FAA1FBB1F91
S11308B09A01AB01281B390B4A0B5B0BA0918B01EE
S11308C0B0918C010E949C0B4B015C01072E7BE0D4
S11308D0B594A794979487947A95D1F7702DD701FE
S11308E0C601689413F8B595A795979587951694BE
S11308F0D1F7BC01CD0164197509860997099B01DB
S1130900AC010E945F0B9B01AC01012E1CE05595CC
S11309104795379527951A95D1F7102DA091B801D1
S1130920B091B9010E949C0BDC01CB01072E7EE043
S1130930B595A795979587957A95D1F7702D880DDC
S1130940991DAA1DBB1D8093BE019093BF01A09366
S1130950C001B093C1016C017D01CC0CDD1CEE1C07
S1130960FF1CCC0CDD1CEE1CFF1C8C0D9D1DAE1D54
S1130970BF1D80589F4FAF4FBF4F692F7A2F8B2FCA
S1130980992787FD9A95FF90EF90DF90CF90BF90C5
S1130990AF909F908F907F906F905F904F9008954D
S11309A02F923F924F925F926F927F928F929F927B
S11309B0AF92BF92CF92DF92EF92FF920F931F9369
S11309C0CF93DF93CDB7DEB766970FB6F894DEBF4B
S11309D00FBECDBF6F87788B898B9A8B8091BE01B8
S11309E09091BF01A091C001B091C1016C017D0142
S11309F0FF0CCC08DC2C7601282F392F4A2F5B2FD3
S1130A006C2D7C2D8C2D9C2D345F41405109610946
S1130A1071098109910929833A83442E552E662E42
S1130A20772E282E392EA22EB32EC42ED52EE62EA6
S1130A30F72E082F192F0E94A40B2B833C834D8380
S1130A405E836F83788789879A87B090BB01A09073
S1130A50BA011B2D110F110BC12ED12EE12EF12E37
S1130A60012F0E94A40B2B873C874D875E87862E1F
S1130A70972E8C8B9B8BB0909801A09097011B2D87
S1130A80110F110BC12ED12EE12EF12E012F298130
S1130A903A81442D552D662D772D822D932D0E945C
S1130AA0A40B01E10E94D40CA22EB32EC42ED52E89
S1130AB0E62EF72E082F192F2B853C854D855E8554
S1130AC0682D792D8C899B890E940B0D822E932E83
S1130AD04C875B87B62FA72FF82FE92F309195010C
S1130AE020919401932F990F990B492F592F692F16
S1130AF0792F892F03E20E94D40CA22EB32EC42E88
S1130B00D52EE62EF72E082F192F282D392D4C859A
S1130B105B856B2F7A2F8F2F9E2F0E940B0D2B87B7
S1130B203C874D875E876B8B7C8B8D8B9E8BB090C7
S1130B30A001A0909F011B2D110F110BC12ED12ECE
S1130B40E12EF12E012F2B813C814D815E816F813D
S1130B50788589859A850E94A40B08E00E94ED0C93
S1130B602B833C834D835E83862E972E88879F83B9
S1130B70B0909301A09092011B2D110F110BC12E67
S1130B80D12EE12EF12E012F29813A81442D552DAC
S1130B90662D772D822D932D0E94A40B0CE00E94CC
S1130BA0D40CA22EB32EC42ED52EE62EF72E082F4B
S1130BB0192F2B813C814D815E81682D792D88858B
S1130BC09F810E940B0D70588F4F9F4FE0919D01A4
S1130BD0F0919E011F01AE2EB32CC12CD12CE12C1F
S1130BE0F12C00E010E00E94A40B01E20E94ED0C45
S1130BF0422E532E642E752E862E972E8A83998329
S1130C00A0E00E941D0D09F400C180E090E0A0E185
S1130C10B0E02F85388949895A89821B930BA40B2C
S1130C20B50B6C017D01FF0CCC08DC2C7601282F60
S1130C30392F4A2F5B2F6C2D7C2D8C2D9C2D0FE191
S1130C400E94D40CAB84BC84CD84DE84EB88FC8805
S1130C500D891E890E94140D0F2EF5E3AF2EF02D81
S1130C600F2EFCE0BF2EF02DC12CD12CE12CF12C49
S1130C7000E010E00E94A40BA42CB52CC62CD72CA9
S1130C80E82CF92C0A8119810E94FF0B2C873B87E1
S1130C9049835A836B837C838D839E83F091B70150
S1130CA0A091B601EF2FEE0FEE0B0DE00E94ED0CBC
S1130CB0222E332E442E552E662E772E882E992ED4
S1130CC0A22EB32EC42ED52EE62EF72E082F192FC2
S1130CD02A2F3F2F4E2F5E2F6E2F7E2F8E2F9E2F6B
S1130CE00E94A40BA22EB32EC42ED52EE62EF72ED0
S1130CF0082F192F222D332D442D552D662D772D98
S1130D00882D992D0E94A40B09E10E94ED0C522E0E
S1130D10432E342E252E6F83788789879A87B09047
S1130D20A201A090A1011B2D110F110BC12ED12ED8
S1130D30E12EF12E012F2C853B8549815A816B814F
S1130D407C818D819E810E94A40B03E10E94ED0CA5
S1130D50622E732E842E952EB62FA72FF82FE92FEF
S1130D602C853B8549815A816B817C818D819E8153
S1130D70A52CB42CC32CD22CEF80F88409851A85B9
S1130D800E940B0DA22EB32EC42ED52EE62EF72EC6
S1130D90082F192F262D372D482D592D6B2F7A2FDB
S1130DA08F2F9E2F0E940B0D08E00E94ED0C822EC7
S1130DB0932E4A835983B62FA72FF82FE92F30910A
S1130DC0840120918301932F990F990B492F592F57
S1130DD0692F792F892F04E00E94D40CA22EB32E00
S1130DE0C42ED52EE62EF72E082F192F282D392D97
S1130DF04A8159816B2F7A2F8F2F9E2F0E940B0DC2
S1130E00622F732F842F952F04C060E070E080E080
S1130E1090E066960FB6F894DEBF0FBECDBFDF91AB
S1130E20CF911F910F91FF90EF90DF90CF90BF90E3
S1130E30AF909F908F907F906F905F904F903F9076
S1130E402F9008954F925F926F927F928F929F920C
S1130E50AF92BF92CF92DF92EF92FF928090BE0149
S1130E609090BF01A090C001B090C1012CE2921AF1
S1130E7021E0A20AB1086B017C010B2EBEE0CC0C70
S1130E80DD1CEE1CFF1CBA95D1F7B02D80918901B1
S1130E9090918A01092E000CAA0BBB0B072E74E15A
S1130EA0880F991FAA1FBB1F7A95D1F7702DC81AF6
S1130EB0D90AEA0AFB0AA091A701B091A801A501E9
S1130EC094010E949C0BC61AD70AE80AF90A30E476
S1130ED0D30EE11CF11C0B2EBFE0F594E794D794DC
S1130EE0C794BA95D1F7B02DA0919601B0E0A501B1
S1130EF094010E94910B2B013C01032E3AE075945E
S1130F006794579447943A95D1F7302DA091AD0149
S1130F10B0E00E94910BDC01CB01072E7BE0B5957C
S1130F20A795979587957A95D1F7702DBC01CD013A
S1130F3070588F4F9F4FA30192010E945F0BDC01F9
S1130F40CB01072E7AE0B595A795979587957A9565
S1130F50D1F7702D9C01AD01405E5F4FA091BC01A3
S1130F60B091BD010E949C0BDC01CB01905EAF4FA0
S1130F70BF4FBC01CD01052E5EE095958795779511
S1130F8067955A95D1F7502DA70196010E945F0BE2
S1130F906B017C01052E5FE09595879577956795A4
S1130FA05A95D1F7502D9B01AC010E945F0B9B0118
S1130FB0AC01689416F8559547953795279516947E
S1130FC0D1F7A0918D01B0E00E94910BDC01CB011F
S1130FD0689413F8B595A795979587951694D1F7C6
S1130FE0A7019601281B390B4A0B5B0BDA01C901D7
S1130FF01AF480E090E0DC0181309105A10539E12B
S1131000B30724F080E090E0A0E0B9E1BC01CD0199
S1131010052E5CE095958795779567955A95D1F758
S1131020502DFF90EF90DF90CF90BF90AF909F90A6
S11310308F907F906F905F904F9008951F920F92C2
S11310400FB60F921124CF92DF92EF92FF922F935B
S11310503F934F935F936F937F938F939F93AF933C
S1131060BF93EF93FF93CF93DF9300D01F92CDB73D
S1131070DEB7809158018B3F20F48F5F8093580135
S11310801FC11092580166E086E290E00E94710050
S113109081110DC080915D01811111C080915B01AE
S11310A08F5F80935B0181E080935D0108C066E0FF
S11310B086E290E00E947100811110925D0180919E
S11310C05C01813081F038F0823009F457C08330FC
S11310D009F49FC0F5C080915B01813009F0F0C034
S11310E080935C01EDC080915B01823011F48093A8
S11310F05C0160E080E00E94FA008FE191E00E94D0
S11311000C0160E080E00E94FA0080E391E00E941C
S11311100C0160E088E00E94FA0060918E017091F9
S11311208F0180919001909191010E94340420914B
S113113000013091010140910201509103010E948C
S11311406F0BCA01B9012093990130939A0140931E
S11311509B0150939C012AE0AE014F5F5F4F0E94B8
S1131160380DCE0101960E940C0160E08AE00E94D5
S1131170FA0089E391E00E940C01A2C080915B0116
S1131180833011F480935C0160E080E00E94FA00F7
S11311908FE191E00E940C0160E080E00E94FA007F
S11311A08DE391E00E940C0160915E0170915F01FA
S11311B080916001909161010E94220720910401B5
S11311C03091050140910601509107010E946F0B77
S11311D0CA01B9012093A3013093A4014093A5014E
S11311E05093A6012AE0AE014F5F5F4F0E94380D75
S11311F060E088E00E94FA00CE0101960E940C0192
S113120060E08BE00E94FA0086E491E00E940C0109
S113121057C080915B01843028F081E080935C01A9
S113122080935B0160E080E00E94FA008FE191E02E
S11312300E940C0160E080E00E94FA0089E491E0E1
S11312400E940C016091A9017091AA018091AB01E7
S11312509091AC010E94D0046B017C0120910801A3
S11312603091090140910A0150910B01A8EEB3E0BD
S11312700E94910B9B01AC01C701B6010E946F0B48
S1131280CA01B9012093C2013093C3014093C40140
S11312905093C5012AE0AE014F5F5F4F0E94380DA5
S11312A060E088E00E94FA00CE0101960E940C01E1
S11312B060E08BE00E94FA0082E591E00E940C015C
S11312C00F900F900F90DF91CF91FF91EF91BF910D
S11312D0AF919F918F917F916F915F914F913F91CA
S11312E02F91FF90EF90DF90CF900F900FBE0F9053
S11312F01F90189587B18F7C87B988B1806388B9AE
S1131300E9EBF0E080818C7F808388E98093B800EA
S1131310089594EA9093BC009091BC009923E4F75B
S11313208093BB0084E88093BC008091BC00882338
S1131330E4F78091B900887F883121F0803421F46A
S113134080E0089580E0089581E008958093BB00D3
S113135084E88093BC008091BC008823E4F708955E
S113136084EC8093BC008091BC008823E4F78091D6
S1131370BB00089584E88093BC008091BC0088235E
S1131380E4F78091BB00089584E98093BC0008953C
S11313905058BB27AA270E94E0090C94B80A0E945F
S11313A0AA0A38F00E94B10A20F039F49F3F19F4D8
S11313B026F40C94A70A0EF4E095E7FB0C94A10A1A
S11313C0E92F0E94C90A58F3BA1762077307840702
S11313D0950720F079F4A6F50C94EB0A0EF4E09549
S11313E00B2EBA2FA02D0B01B90190010C01CA01DB
S11313F0A0011124FF27591B99F0593F50F4503E86
S113140068F11A16F040A22F232F342F4427585F77
S1131410F3CF469537952795A795F0405395C9F78F
S11314207EF41F16BA0B620B730B840BBAF0915047
S1131430A1F0FF0FBB1F661F771F881FC2F70EC0E6
S1131440BA0F621F731F841F48F4879577956795B9
S1131450B795F7959E3F08F0B0CF9395880F08F0A5
S11314609927EE0F9795879508950E94D10A88F0E1
S11314709F5798F0B92F9927B751B0F0E1F0660F54
S1131480771F881F991F1AF0BA95C9F714C0B13095
S113149091F00E94EB0AB1E008950C94EB0A672FD7
S11314A0782F8827B85F39F0B93FCCF386957795C4
S11314B06795B395D9F73EF49095809570956195AD
S11314C07F4F8F4F9F4F0895E89409C097FB3EF4D8
S11314D090958095709561957F4F8F4F9F4F99237D
S11314E0A9F0F92F96E9BB279395F69587957795FB
S11314F06795B795F111F8CFFAF4BB0F11F460FFBB
S11315001BC06F5F7F4F8F4F9F4F16C0882311F012
S113151096E911C0772321F09EE8872F762F05C026
S1131520662371F096E8862F70E060E02AF09A95C1
S1131530660F771F881FDAF7880F9695879597F9B6
S1131540089597F99F6780E870E060E008959FEF41
S113155080EC089500240A94161617061806090646
S1131560089500240A941216130614060506089515
S1131570092E0394000C11F4882352F0BB0F40F49D
S1131580BF2B11F460FF04C06F5F7F4F8F4F9F4FDD
S1131590089557FD9058440F551F59F05F3F71F05F
S11315A04795880F97FB991F61F09F3F79F08795C6
S11315B00895121613061406551FF2CF4695F1DF4F
S11315C008C0161617061806991FF1CF86957105DF
S11315D0610508940895E894BB2766277727CB0113
S11315E097F908950E94050B0C94B80A0E94AA0A60
S11315F038F00E94B10A20F0952311F00C94A10A4E
S11316000C94A70A11240C94EC0A0E94C90A70F3E2
S1131610959FC1F3950F50E0551F629FF001729F93
S1131620BB27F00DB11D639FAA27F00DB11DAA1FA2
S1131630649F6627B00DA11D661F829F2227B00DEF
S1131640A11D621F739FB00DA11D621F839FA00D7A
S1131650611D221F749F3327A00D611D231F849FCA
S1131660600D211D822F762F6A2F11249F57504021
S11316709AF0F1F088234AF0EE0FFF1FBB1F661F9C
S1131680771F881F91505040A9F79E3F510580F065
S11316900C94A10A0C94EC0A5F3FE4F3983ED4F353
S11316A0869577956795B795F795E7959F5FC1F709
S11316B0FE2B880F911D9695879597F90895DB0168
S11316C08F939F930E94910BBF91AF91A29F800D26
S11316D0911DA39F900DB29F900D11240895A1E236
S11316E01A2EAA1BBB1BFD010DC0AA1FBB1FEE1F98
S11316F0FF1FA217B307E407F50720F0A21BB30BE3
S1131700E40BF50B661F771F881F991F1A9469F75E
S113171060957095809590959B01AC01BD01CF01BA
S113172008950E94290DA59F900DB49F900DA49F2C
S1131730800D911D11240895B7FF0C94910B0E9404
S1131740910B821B930B0895DF93CF931F930F93F9
S11317509A9DF02D219FF00D8B9DF00D8A9DE02D1B
S1131760F10D039FF00D029FE00DF11D4E9DE00D64
S1131770F11D5E9DF00D4F9DF00D7F936F93BF9211
S1131780AF925F934F93D5010E94290D8B01AC0159
S1131790D7010E94290DEB01E80FF91FD6010E9421
S11317A0F40B2F913F91D6010E94290DC60FD71F2C
S11317B0E81FF91FAF91BF910E94F40B2F913F9145
S11317C00E94290DC60FD71FE81FF91FD6010E94DA
S11317D0290DE60FF71F9801BE01CF0111240F91C7
S11317E01F91CF91DF9108950E94290D460F571F35
S11317F0C81FD91F08F431960895689401C0E8946D
S1131800F92FF12B12F00C94310CA0E0B0E0EBE0D6
S1131810FCE00C94A30C092E059422F40E948D0C78
S1131820112392F4F0E80F26FFEFE094F094009572
S11318301095B094C094D094A194BF0ACF0ADF0A43
S1131840EF0AFF0A0F0B1F0B0E943C0C07FC0E94BF
S11318508D0CCDB7DEB7ECE00C94BF0C689401C0DE
S1131860E8948F929F92CF93DF930E943C0CDF9178
S1131870CF919F908F90089588249924F401E401D6
S1131880B0E49F93AA279A158B049C04ED05FE05EA
S1131890CF05D007A10798F4AD2FDC2FCF2FFE2F53
S11318A0E92D982C892E982F872F762F652F542F6A
S11318B0432F322F2227B85031F7BF9127C01B2E58
S11318C0BF91BB27220F331F441F551F661F771F6D
S11318D0881F991F881C991CEE1FFF1FCC1FDD1F3A
S11318E0AA1FBB1F8A149B04EC05FD05CE05DF056A
S11318F0A007B10748F08A189B08EC09FD09CE0936
S1131900DF09A00BB10B21601A94E1F62EF49401C7
S1131910AF01BE01CD01000C0895609570958095CE
S1131920909530954095509521953F4F4F4F5F4F7F
S11319306F4F7F4F8F4F9F4F08952F923F924F923B
S11319405F926F927F928F929F92AF92BF92CF924B
S1131950DF92EF92FF920F931F93CF93DF93CDB754
S1131960DEB7CA1BDB0B0FB6F894DEBF0FBECDBFCC
S113197009942A88398848885F846E847D848C849D
S11319809B84AA84B984C884DF80EE80FD800C81A6
S11319901B81AA81B981CE0FD11D0FB6F894DEBF89
S11319A00FBECDBFED0108950F93083090F0982F2E
S11319B0872F762F652F542F432F322F222708503D
S11319C0F4CF220F331F441F551F661F771F881F34
S11319D0991F0A95B2F70F91089597FB10F8169482
S11319E000080F93083098F00850232F342F452F08
S11319F0562F672F782F892F902DF4CF0594979524
S1131A0087957795679557954795379527950A95BF
S1131A10AAF70F9108952A0D3B1D4C1D5D1D6E1DE7
S1131A207F1D801F911F08952A193B094C095D09E8
S1131A306E097F09800B910B08950024A7FD009483
S1131A402A1730054005500560057005800590058E
S1131A500895A29FB001B39FC001A39F700D811D83
S1131A601124911DB29F700D811D1124911D0895A3
S1131A70BB272A3051F4992342F4BDE29095809516
S1131A80709561957F4F8F4F9F4F0C94480DBB27E6
S1131A90FA01A62F6217710581059105330B30FBFE
S1131AA066F0AA27660F771F881F991FAA1FA2171F
S1131AB010F0A21B63953850A9F7A05DAA3308F073
S1131AC0A95DA19336F7B111B1931082CA010C94A8
S1131AD0690DDC01FC01672F71917723E1F73297DF
S1131AE004C07C916D9370836291AE17BF07C8F3F5
S1091AF00895F894FFCFF5
S1131AF6E8030000000400000001000001576561CE
S1131B0674686572200073746174696F6E200020B6
S1131B1620202020202020202020202020202000DB
S1131B26202054454D503A200020B0430020202068
S1131B3648554D3A20002025002050524553533A2B
S10B1B4620002068506100003A
S9030000FC
