S010000050726F6A656374322E737265630B
S11300000C9434000C9451000C9451000C94510045
S11300100C9451000C9451000C9451000C94510018
S11300200C9451000C9451000C9451000C94510008
S11300300C9451000C94B2010C9451000C94510096
S11300400C943D040C9451000C9419050C94470530
S11300500C9451000C9451000C9451000C945100D8
S11300600C9451000C94510011241FBECFEFD8E022
S1130070DEBFCDBF11E0A0E0B1E0E4EDFCE002C0E2
S113008005900D92A434B107D9F721E0A4E4B1E0BE
S113009001C01D92AE3EB207E1F70E9453000C94DA
S11300A068060C940000CF93DF93CDB7DEB7689752
S11300B00FB6F894DEBF0FBECDBF0E94C70487E61B
S11300C090E00E947105E1E8F0E080818A7F8083FE
S11300D0808182608083EFE6F0E0808181608083AC
S11300E085B58C7F85BD85B5846085BDEEE6F0E081
S11300F080818160808378948CEE0E94D604809302
S113010005014AE061E971E090E00E94020686E0A0
S113011091E00E949F0581E991E00E949F058FE094
S113012091E00E949F0580910501811191C088E8AA
S11301300E94F4048DEE0E94D6048E010F5F1F4FBF
S11301407E013AE1E30EF11C0E94FF04F801819361
S11301508F01EE16FF06C1F70E940A050E941505DD
S11301608A8190E0982F88272981822B9093B5016A
S11301708093B4018C8190E0982F88272B81822B67
S11301809093B9018093B8018E8190E0982F8827CD
S11301902D81822B9093E1018093E001888590E08A
S11301A0982F88272F81822B9093CE018093CD01A5
S11301B08A8590E0982F88272985822B9093BF0108
S11301C08093BE018C8590E0982F88272B85822B05
S11301D09093D0018093CF018E8590E0982F88274B
S11301E02D85822B9093C1018093C001888990E072
S11301F0982F88272F85822B9093C4018093C30165
S11302008A8990E0982F88272989822B9093E3018B
S11302108093E2018C8990E0982F88272B89822B88
S11302209093B3018093B2018E8990E0982F882730
S11302302D89822B9093D2018093D101888D90E0F7
S1130240982F88272F89822B9093DF018093DE01DA
S11302508CEE0E94D604809305014AE061E971E0C6
S113026090E00E94020682E191E00E949F0581E9EC
S113027091E00E949F058FE091E00E949F0580918C
S1130280050181113FC081EE0E94F4048DEE0E94AD
S1130290D6048E010F5F1F4F7E01F7E0EF0EF11CB5
S11302A00E94FF04F80181938F01EE16FF06C1F747
S11302B00E940A05182F0E9415058A8190E0982F44
S11302C088272981822B9093E5018093E4018B8117
S11302D08093DD012D818C81F0E18F9FC001112479
S11302E09093B7018093B6018E8130E1839FC00162
S11302F0112422952F70822B9093D8018093D701DB
S11303001093C2018CEE0E94D604809305014AE04A
S113031061E971E090E00E9402068CE191E00E94A4
S11303209F0581E991E00E949F058FE091E00E9482
S11303309F0580910501811114C085EF0E94F4048A
S113034080EB0E94F40482EF0E94F40485E00E9492
S1130350F40484EF0E94F40487EB0E94F4040E94E6
S11303601505FFCF1F920F920FB60F921124CF9253
S1130370DF92EF92FF920F931F932F933F934F932C
S11303805F936F937F938F939F93AF93BF93EF93F9
S1130390FF93CF93DF93CDB7DEB72897DEBFCDBFF2
S11303A080914601909147018739910534F4019673
S11303B09093470180934601B0C010924701109278
S11303C046018CEE0E94D604809305014AE061E95F
S11303D071E090E00E94020689E291E00E949F058C
S11303E081E991E00E949F058FE091E00E949F05C2
S11303F080910501811191C087EF0E94F4048DEE74
S11304000E94D6048E010F5F1F4F7E0189E0E80E23
S1130410F11C0E94FF04F80181938F01EE15FF0582
S1130420C1F70E9415058C8190E0A0E0B0E0AC011A
S1130430BD01032E3CE0440F551F661F771F3A95FC
S1130440D1F7302D9D81892F90E0A0E0B0E0880F96
S1130450991FAA1FBB1F880F991FAA1FBB1F880FB4
S1130460991FAA1FBB1F880F991FAA1FBB1F842B8C
S1130470952BA62BB72B2E8122952F70822B0F81C3
S113048010E020E030E0322F212F102F0027488584
S1130490042B498150E060E070E06A017B010B2E7F
S11304A0BCE0CC0CDD1CEE1CFF1CBA95D1F7B02DC2
S11304B05A81452F50E060E070E0440F551F661FDD
S11304C0771F440F551F661F771F440F551F661F64
S11304D0771F440F551F661F771F4C295D296E290E
S11304E07F29EB81E295EF704E2B4093D901509315
S11304F0DA016093DB017093DC018093BA0190937D
S1130500BB01A093BC01B093BD0100938D01109376
S11305108E0120938F013093900128960FB6F894A2
S1130520DEBF0FBECDBFDF91CF91FF91EF91BF91A1
S1130530AF919F918F917F916F915F914F913F9177
S11305402F911F910F91FF90EF90DF90CF900F901C
S11305500FBE0F901F9018958F929F92AF92BF92EB
S1130560CF92DF92EF92FF920F931F930091B40109
S11305701091B50120E030E06B017C01689413F820
S1130580F594E794D794C7941694D1F7C01AD10A76
S1130590E20AF30ADC01CB01689412F8B595A79539
S11305A0979587951694D1F7000F111F221F331FBB
S11305B04C015D01801A910AA20AB30AA5019401B3
S11305C0A091B801B091B9010E94EB054B015C0107
S11305D0072E7BE0B594A794979487947A95D1F7E6
S11305E0702DA7019601C701B6010E94AE059B01BB
S11305F0AC01012E1CE055954795379527951A9522
S1130600D1F7102DA091E001B091E1010E94EB051A
S1130610DC01CB01072E7EE0B595A79597958795CC
S11306207A95D1F7702D880D991DAA1DBB1D809355
S1130630E6019093E701A093E801B093E9018C01EE
S11306409D01000F111F221F331F000F111F221FB6
S1130650331F800F911FA21FB31F80589F4FAF4FAE
S1130660BF4F692F7A2F8B2F992787FD9A951F915A
S11306700F91FF90EF90DF90CF90BF90AF909F903D
S11306808F9008954F925F926F927F928F929F9274
S1130690AF92BF92CF92DF92EF92FF928090E601E9
S11306A09090E701A090E801B090E9012CE2921A41
S11306B021E0A20AB1086B017C010B2EBEE0CC0C38
S11306C0DD1CEE1CFF1CBA95D1F7B02D8091B6014C
S11306D09091B701092E000CAA0BBB0B072E74E1F5
S11306E0880F991FAA1FBB1F7A95D1F7702DC81ABE
S11306F0D90AEA0AFB0AA091D701B091D801A50151
S113070094010E94EB05C61AD70AE80AF90A30E4F4
S1130710D30EE11CF11C0B2EBFE0F594E794D794A3
S1130720C794BA95D1F7B02DA091DD01B0E0A50131
S113073094010E94E0052B013C01032E3BE07594DB
S11307406794579447943A95D1F7302D40E8540E66
S1130750611C711CA091C201B0E0A50194010E942A
S1130760E005052E5AE095958795779567955A95F6
S1130770D1F7502DA30192010E94AE05DC01CB01FB
S1130780072E7AE0B595A795979587957A95D1F731
S1130790702D9C01AD01405E5F4FA091E401B091CA
S11307A0E5010E94EB05DC01CB01905EAF4FBF4F2A
S11307B0BC01CD01052E5EE09595879577956795EB
S11307C05A95D1F7502DA70196010E94AE056B01F1
S11307D07C01052E5FE095958795779567955A95E9
S11307E0D1F7502D9B01AC010E94AE059B01AC01D9
S11307F0689416F855954795379527951694D1F72B
S1130800A0910001B0E00E94E005DC01CB016894F6
S113081013F8B595A795979587951694D1F7A701E1
S11308209601281B390B4A0B5B0BDA01C9011AF438
S113083080E090E0DC0181309105A10539E1B30746
S113084024F080E090E0A0E0B9E1BC01CD01052EE8
S11308505CE095958795779567955A95D1F7502DD6
S1130860FF90EF90DF90CF90BF90AF909F908F90CC
S11308707F906F905F904F9008951F920F920FB6E4
S11308800F9211242F933F934F935F936F937F9312
S11308908F939F93AF93BF93EF93FF938091440102
S11308A090914501813D27E0920734F4019690939D
S11308B04501809344015AC01092450110924401AD
S11308C085E391E00E949F056091BA017091BB019C
S11308D08091BC019091BD010E94AC026093C5015E
S11308E07093C6018093C7019093C8012AE041E93F
S11308F051E00E940D0687E391E00E949F0581E983
S113090091E00E949F058FE091E00E949F05609115
S11309108D0170918E0180918F01909190010E94C0
S11309204203209101013091020140910301509151
S113093004010E94BE05CA01B9012093D30130937A
S1130940D4014093D5015093D6012AE041E951E006
S11309500E940D068EE391E00E949F0581E991E0DB
S11309600E949F058FE091E00E949F05FF91EF9107
S1130970BF91AF919F918F917F916F915F914F91B3
S11309803F912F910F900FBE0F901F90189587B134
S11309908F7C87B988B1806388B9E9EBF0E0808106
S11309A08C7F808388E98093B800089594EA9093BB
S11309B0BC00ECEBF0E090819923ECF78093BB0052
S11309C084E88093BC00ECEBF0E080818823ECF7B2
S11309D09091B900987F983129F081E0903419F40E
S11309E080E0089580E008958093BB0084E88093BC
S11309F0BC00ECEBF0E080818823ECF7089584ECF4
S1130A008093BC00ECEBF0E080818823ECF78091CC
S1130A10BB00089584E88093BC00ECEBF0E0808197
S1130A208823ECF78091BB00089584E98093BC008F
S1130A3008951F920F920FB60F9211242F938F9344
S1130A409F93EF93FF938091C0002091C6008C7117
S1130A50E0914A01EF5FEF7190914901E91739F094
S1130A60E0934A01F0E0E35BFE4F208301C082E0A3
S1130A7090914801892B80934801FF91EF919F91B8
S1130A808F912F910F900FBE0F901F9018951F926A
S1130A900F920FB60F9211248F939F93EF93FF93AE
S1130AA090914C0180914B01981769F0E0914B01B2
S1130AB0EF5FEF71E0934B01F0E0E359FE4F80816B
S1130AC08093C60005C0E1ECF0E080818F7D8083D7
S1130AD0FF91EF919F918F910F900FBE0F901F90F8
S1130AE0189510924C0110924B0110924A011092E9
S1130AF0490199231CF422E02093C000907890933C
S1130B00C5008093C40088E98093C10086E0809387
S1130B10C200089520914C012F5F2F7190914B01D9
S1130B202917E1F3E22FF0E0E359FE4F808320938D
S1130B304C01E1ECF0E08081806280830895CF93E2
S1130B40DF93EC018881882331F021960E948A0585
S1130B5089918111FBCFDF91CF910895DB018F93B0
S1130B609F930E94E005BF91AF91A29F800D911DBC
S1130B70A39F900DB29F900D11240895A1E21A2E07
S1130B80AA1BBB1BFD010DC0AA1FBB1FEE1FFF1F2D
S1130B90A217B307E407F50720F0A21BB30BE40B7D
S1130BA0F50B661F771F881F991F1A9469F76095C4
S1130BB07095809590959B01AC01BD01CF0108957E
S1130BC00E94F305A59F900DB49F900DA49F800DE6
S1130BD0911D11240895B7FF0C94E0050E94E005CF
S1130BE0821B930B0895A29FB001B39FC001A39FE2
S1130BF0700D811D1124911DB29F700D811D112452
S1130C00911D0895BB274A3031F4992322F4BDE2A3
S1130C10909581959F4F0C943F06BB272A3051F441
S1130C20992342F4BDE290958095709561957F4F2C
S1130C308F4F9F4F0C941D06BB27FA01A62F6217F6
S1130C40710581059105330B30FB66F0AA27660F09
S1130C50771F881F991FAA1FA21710F0A21B639564
S1130C603850A9F7A05DAA3308F0A95DA19336F71F
S1130C70B111B1931082CA010C945806BB27FB0131
S1130C805527AA27880F991FAA1FA41710F0A41B81
S1130C9083955051B9F7A05DAA3308F0A95DA193DB
S1130CA0009779F7B111B1931192CB010C945806C6
S1130CB0DC01FC01672F71917723E1F7329704C0BF
S1130CC07C916D9370836291AE17BF07C8F308954A
S1070CD0F894FFCFC2
S1130CD44B0004000001726561646F757420000D9B
S1130CE40A00726561646F7574322000696E6974F8
S1130CF420726573756C742000646174612072657C
S1130D0461643A20000C0074656D703A20006875C3
S1070D146D3A200010
S9030000FC
